{
  "_format": "hh-sol-artifact-1",
  "contractName": "GameContract",
  "sourceName": "contracts/GameContract.sol",
  "abi": [
    {
      "inputs": [
        {
          "internalType": "string[]",
          "name": "characterNames",
          "type": "string[]"
        },
        {
          "internalType": "string[]",
          "name": "characterImageURIs",
          "type": "string[]"
        },
        {
          "internalType": "uint256[]",
          "name": "characterHp",
          "type": "uint256[]"
        },
        {
          "internalType": "uint256[]",
          "name": "characterAttackDmg",
          "type": "uint256[]"
        },
        {
          "internalType": "string",
          "name": "bossName",
          "type": "string"
        },
        {
          "internalType": "string",
          "name": "bossImageURI",
          "type": "string"
        },
        {
          "internalType": "uint256",
          "name": "bossHp",
          "type": "uint256"
        },
        {
          "internalType": "uint256",
          "name": "bossAttackDamage",
          "type": "uint256"
        }
      ],
      "stateMutability": "nonpayable",
      "type": "constructor"
    },
    {
      "anonymous": false,
      "inputs": [
        {
          "indexed": true,
          "internalType": "address",
          "name": "owner",
          "type": "address"
        },
        {
          "indexed": true,
          "internalType": "address",
          "name": "approved",
          "type": "address"
        },
        {
          "indexed": true,
          "internalType": "uint256",
          "name": "tokenId",
          "type": "uint256"
        }
      ],
      "name": "Approval",
      "type": "event"
    },
    {
      "anonymous": false,
      "inputs": [
        {
          "indexed": true,
          "internalType": "address",
          "name": "owner",
          "type": "address"
        },
        {
          "indexed": true,
          "internalType": "address",
          "name": "operator",
          "type": "address"
        },
        {
          "indexed": false,
          "internalType": "bool",
          "name": "approved",
          "type": "bool"
        }
      ],
      "name": "ApprovalForAll",
      "type": "event"
    },
    {
      "anonymous": false,
      "inputs": [
        {
          "indexed": false,
          "internalType": "address",
          "name": "sender",
          "type": "address"
        },
        {
          "indexed": false,
          "internalType": "uint256",
          "name": "newBossHp",
          "type": "uint256"
        },
        {
          "indexed": false,
          "internalType": "uint256",
          "name": "newPlayerHp",
          "type": "uint256"
        }
      ],
      "name": "AttackComplete",
      "type": "event"
    },
    {
      "anonymous": false,
      "inputs": [
        {
          "indexed": false,
          "internalType": "address",
          "name": "sender",
          "type": "address"
        },
        {
          "indexed": false,
          "internalType": "uint256",
          "name": "tokenId",
          "type": "uint256"
        },
        {
          "indexed": false,
          "internalType": "uint256",
          "name": "characterIndex",
          "type": "uint256"
        }
      ],
      "name": "CharacterNFTMinted",
      "type": "event"
    },
    {
      "anonymous": false,
      "inputs": [
        {
          "indexed": true,
          "internalType": "address",
          "name": "from",
          "type": "address"
        },
        {
          "indexed": true,
          "internalType": "address",
          "name": "to",
          "type": "address"
        },
        {
          "indexed": true,
          "internalType": "uint256",
          "name": "tokenId",
          "type": "uint256"
        }
      ],
      "name": "Transfer",
      "type": "event"
    },
    {
      "inputs": [
        {
          "internalType": "address",
          "name": "to",
          "type": "address"
        },
        {
          "internalType": "uint256",
          "name": "tokenId",
          "type": "uint256"
        }
      ],
      "name": "approve",
      "outputs": [],
      "stateMutability": "nonpayable",
      "type": "function"
    },
    {
      "inputs": [],
      "name": "attackBoss",
      "outputs": [],
      "stateMutability": "nonpayable",
      "type": "function"
    },
    {
      "inputs": [
        {
          "internalType": "address",
          "name": "owner",
          "type": "address"
        }
      ],
      "name": "balanceOf",
      "outputs": [
        {
          "internalType": "uint256",
          "name": "",
          "type": "uint256"
        }
      ],
      "stateMutability": "view",
      "type": "function"
    },
    {
      "inputs": [],
      "name": "bigBoss",
      "outputs": [
        {
          "internalType": "string",
          "name": "name",
          "type": "string"
        },
        {
          "internalType": "string",
          "name": "imageURI",
          "type": "string"
        },
        {
          "internalType": "uint256",
          "name": "hp",
          "type": "uint256"
        },
        {
          "internalType": "uint256",
          "name": "maxHp",
          "type": "uint256"
        },
        {
          "internalType": "uint256",
          "name": "attackDamage",
          "type": "uint256"
        }
      ],
      "stateMutability": "view",
      "type": "function"
    },
    {
      "inputs": [],
      "name": "getAllCharacters",
      "outputs": [
        {
          "components": [
            {
              "internalType": "uint256",
              "name": "index",
              "type": "uint256"
            },
            {
              "internalType": "string",
              "name": "name",
              "type": "string"
            },
            {
              "internalType": "string",
              "name": "imageURI",
              "type": "string"
            },
            {
              "internalType": "uint256",
              "name": "hp",
              "type": "uint256"
            },
            {
              "internalType": "uint256",
              "name": "maxHp",
              "type": "uint256"
            },
            {
              "internalType": "uint256",
              "name": "attackDamage",
              "type": "uint256"
            }
          ],
          "internalType": "struct GameContract.Attributes[]",
          "name": "",
          "type": "tuple[]"
        }
      ],
      "stateMutability": "view",
      "type": "function"
    },
    {
      "inputs": [
        {
          "internalType": "uint256",
          "name": "tokenId",
          "type": "uint256"
        }
      ],
      "name": "getApproved",
      "outputs": [
        {
          "internalType": "address",
          "name": "",
          "type": "address"
        }
      ],
      "stateMutability": "view",
      "type": "function"
    },
    {
      "inputs": [],
      "name": "getBoss",
      "outputs": [
        {
          "components": [
            {
              "internalType": "string",
              "name": "name",
              "type": "string"
            },
            {
              "internalType": "string",
              "name": "imageURI",
              "type": "string"
            },
            {
              "internalType": "uint256",
              "name": "hp",
              "type": "uint256"
            },
            {
              "internalType": "uint256",
              "name": "maxHp",
              "type": "uint256"
            },
            {
              "internalType": "uint256",
              "name": "attackDamage",
              "type": "uint256"
            }
          ],
          "internalType": "struct GameContract.BigBoss",
          "name": "",
          "type": "tuple"
        }
      ],
      "stateMutability": "view",
      "type": "function"
    },
    {
      "inputs": [
        {
          "internalType": "address",
          "name": "owner",
          "type": "address"
        },
        {
          "internalType": "address",
          "name": "operator",
          "type": "address"
        }
      ],
      "name": "isApprovedForAll",
      "outputs": [
        {
          "internalType": "bool",
          "name": "",
          "type": "bool"
        }
      ],
      "stateMutability": "view",
      "type": "function"
    },
    {
      "inputs": [
        {
          "internalType": "uint256",
          "name": "_characterIndex",
          "type": "uint256"
        }
      ],
      "name": "mintGameNFT",
      "outputs": [],
      "stateMutability": "nonpayable",
      "type": "function"
    },
    {
      "inputs": [],
      "name": "name",
      "outputs": [
        {
          "internalType": "string",
          "name": "",
          "type": "string"
        }
      ],
      "stateMutability": "view",
      "type": "function"
    },
    {
      "inputs": [
        {
          "internalType": "uint256",
          "name": "",
          "type": "uint256"
        }
      ],
      "name": "nftHolderAttributes",
      "outputs": [
        {
          "internalType": "uint256",
          "name": "index",
          "type": "uint256"
        },
        {
          "internalType": "string",
          "name": "name",
          "type": "string"
        },
        {
          "internalType": "string",
          "name": "imageURI",
          "type": "string"
        },
        {
          "internalType": "uint256",
          "name": "hp",
          "type": "uint256"
        },
        {
          "internalType": "uint256",
          "name": "maxHp",
          "type": "uint256"
        },
        {
          "internalType": "uint256",
          "name": "attackDamage",
          "type": "uint256"
        }
      ],
      "stateMutability": "view",
      "type": "function"
    },
    {
      "inputs": [
        {
          "internalType": "address",
          "name": "",
          "type": "address"
        }
      ],
      "name": "nftHolders",
      "outputs": [
        {
          "internalType": "uint256",
          "name": "",
          "type": "uint256"
        }
      ],
      "stateMutability": "view",
      "type": "function"
    },
    {
      "inputs": [
        {
          "internalType": "uint256",
          "name": "tokenId",
          "type": "uint256"
        }
      ],
      "name": "ownerOf",
      "outputs": [
        {
          "internalType": "address",
          "name": "",
          "type": "address"
        }
      ],
      "stateMutability": "view",
      "type": "function"
    },
    {
      "inputs": [],
      "name": "returnUsersNFT",
      "outputs": [
        {
          "components": [
            {
              "internalType": "uint256",
              "name": "index",
              "type": "uint256"
            },
            {
              "internalType": "string",
              "name": "name",
              "type": "string"
            },
            {
              "internalType": "string",
              "name": "imageURI",
              "type": "string"
            },
            {
              "internalType": "uint256",
              "name": "hp",
              "type": "uint256"
            },
            {
              "internalType": "uint256",
              "name": "maxHp",
              "type": "uint256"
            },
            {
              "internalType": "uint256",
              "name": "attackDamage",
              "type": "uint256"
            }
          ],
          "internalType": "struct GameContract.Attributes",
          "name": "",
          "type": "tuple"
        }
      ],
      "stateMutability": "view",
      "type": "function"
    },
    {
      "inputs": [
        {
          "internalType": "address",
          "name": "from",
          "type": "address"
        },
        {
          "internalType": "address",
          "name": "to",
          "type": "address"
        },
        {
          "internalType": "uint256",
          "name": "tokenId",
          "type": "uint256"
        }
      ],
      "name": "safeTransferFrom",
      "outputs": [],
      "stateMutability": "nonpayable",
      "type": "function"
    },
    {
      "inputs": [
        {
          "internalType": "address",
          "name": "from",
          "type": "address"
        },
        {
          "internalType": "address",
          "name": "to",
          "type": "address"
        },
        {
          "internalType": "uint256",
          "name": "tokenId",
          "type": "uint256"
        },
        {
          "internalType": "bytes",
          "name": "data",
          "type": "bytes"
        }
      ],
      "name": "safeTransferFrom",
      "outputs": [],
      "stateMutability": "nonpayable",
      "type": "function"
    },
    {
      "inputs": [
        {
          "internalType": "address",
          "name": "operator",
          "type": "address"
        },
        {
          "internalType": "bool",
          "name": "approved",
          "type": "bool"
        }
      ],
      "name": "setApprovalForAll",
      "outputs": [],
      "stateMutability": "nonpayable",
      "type": "function"
    },
    {
      "inputs": [
        {
          "internalType": "bytes4",
          "name": "interfaceId",
          "type": "bytes4"
        }
      ],
      "name": "supportsInterface",
      "outputs": [
        {
          "internalType": "bool",
          "name": "",
          "type": "bool"
        }
      ],
      "stateMutability": "view",
      "type": "function"
    },
    {
      "inputs": [],
      "name": "symbol",
      "outputs": [
        {
          "internalType": "string",
          "name": "",
          "type": "string"
        }
      ],
      "stateMutability": "view",
      "type": "function"
    },
    {
      "inputs": [
        {
          "internalType": "uint256",
          "name": "_tokenId",
          "type": "uint256"
        }
      ],
      "name": "tokenURI",
      "outputs": [
        {
          "internalType": "string",
          "name": "",
          "type": "string"
        }
      ],
      "stateMutability": "view",
      "type": "function"
    },
    {
      "inputs": [
        {
          "internalType": "address",
          "name": "from",
          "type": "address"
        },
        {
          "internalType": "address",
          "name": "to",
          "type": "address"
        },
        {
          "internalType": "uint256",
          "name": "tokenId",
          "type": "uint256"
        }
      ],
      "name": "transferFrom",
      "outputs": [],
      "stateMutability": "nonpayable",
      "type": "function"
    }
  ],
  "bytecode": "0x60806040523480156200001157600080fd5b50604051620059b7380380620059b7833981810160405281019062000037919062000b06565b6040518060400160405280600781526020017f4c6567656e6473000000000000000000000000000000000000000000000000008152506040518060400160405280600481526020017f4c474e44000000000000000000000000000000000000000000000000000000008152508160009080519060200190620000bb92919062000899565b508060019080519060200190620000d492919062000899565b5050506040518060a0016040528085815260200184815260200183815260200183815260200182815250600960008201518160000190805190602001906200011e92919062000899565b5060208201518160010190805190602001906200013d92919062000899565b50604082015181600201556060820151816003015560808201518160040155905050620002c06040518060600160405280603181526020016200598660319139600960000180546200018f9062000ee4565b80601f0160208091040260200160405190810160405280929190818152602001828054620001bd9062000ee4565b80156200020e5780601f10620001e2576101008083540402835291602001916200020e565b820191906000526020600020905b815481529060010190602001808311620001f057829003601f168201915b5050505050600960020154600960010180546200022b9062000ee4565b80601f0160208091040260200160405190810160405280929190818152602001828054620002599062000ee4565b8015620002aa5780601f106200027e57610100808354040283529160200191620002aa565b820191906000526020600020905b8154815290600101906020018083116200028c57829003601f168201915b50505050506200070260201b62001dae1760201c565b60005b8851811015620006dc5760076040518060c001604052808381526020018b84815181106200031a577f4e487b7100000000000000000000000000000000000000000000000000000000600052603260045260246000fd5b602002602001015181526020018a848151811062000361577f4e487b7100000000000000000000000000000000000000000000000000000000600052603260045260246000fd5b60200260200101518152602001898481518110620003a8577f4e487b7100000000000000000000000000000000000000000000000000000000600052603260045260246000fd5b60200260200101518152602001898481518110620003ef577f4e487b7100000000000000000000000000000000000000000000000000000000600052603260045260246000fd5b6020026020010151815260200188848151811062000436577f4e487b7100000000000000000000000000000000000000000000000000000000600052603260045260246000fd5b602002602001015181525090806001815401808255809150506001900390600052602060002090600602016000909190919091506000820151816000015560208201518160010190805190602001906200049292919062000899565b506040820151816002019080519060200190620004b192919062000899565b50606082015181600301556080820151816004015560a0820151816005015550506000600782815481106200050f577f4e487b7100000000000000000000000000000000000000000000000000000000600052603260045260246000fd5b90600052602060002090600602016040518060c001604052908160008201548152602001600182018054620005449062000ee4565b80601f0160208091040260200160405190810160405280929190818152602001828054620005729062000ee4565b8015620005c35780601f106200059757610100808354040283529160200191620005c3565b820191906000526020600020905b815481529060010190602001808311620005a557829003601f168201915b50505050508152602001600282018054620005de9062000ee4565b80601f01602080910402602001604051908101604052809291908181526020018280546200060c9062000ee4565b80156200065d5780601f1062000631576101008083540402835291602001916200065d565b820191906000526020600020905b8154815290600101906020018083116200063f57829003601f168201915b5050505050815260200160038201548152602001600482015481526020016005820154815250509050620006c46040518060600160405280602d815260200162005959602d913982602001518360a001518460600151620007ae60201b62001e501760201c565b50600181620006d4919062000e47565b9050620002c3565b50620006f460066200085a60201b62001ef21760201c565b505050505050505062001008565b620007a8848484846040516024016200071f949392919062000cb1565b6040516020818303038152906040527f8d142cdd000000000000000000000000000000000000000000000000000000007bffffffffffffffffffffffffffffffffffffffffffffffffffffffff19166020820180517bffffffffffffffffffffffffffffffffffffffffffffffffffffffff83818316178352505050506200087060201b60201c565b50505050565b6200085484848484604051602401620007cb949392919062000d13565b6040516020818303038152906040527fd5cf17d0000000000000000000000000000000000000000000000000000000007bffffffffffffffffffffffffffffffffffffffffffffffffffffffff19166020820180517bffffffffffffffffffffffffffffffffffffffffffffffffffffffff83818316178352505050506200087060201b60201c565b50505050565b6001816000016000828254019250508190555050565b60008151905060006a636f6e736f6c652e6c6f679050602083016000808483855afa5050505050565b828054620008a79062000ee4565b90600052602060002090601f016020900481019282620008cb576000855562000917565b82601f10620008e657805160ff191683800117855562000917565b8280016001018555821562000917579182015b8281111562000916578251825591602001919060010190620008f9565b5b5090506200092691906200092a565b5090565b5b80821115620009455760008160009055506001016200092b565b5090565b6000620009606200095a8462000d97565b62000d6e565b9050808382526020820190508260005b85811015620009a4578151850162000989888262000ac2565b84526020840193506020830192505060018101905062000970565b5050509392505050565b6000620009c5620009bf8462000dc6565b62000d6e565b90508083825260208201905082856020860282011115620009e557600080fd5b60005b8581101562000a195781620009fe888262000aef565b845260208401935060208301925050600181019050620009e8565b5050509392505050565b600062000a3a62000a348462000df5565b62000d6e565b90508281526020810184848401111562000a5357600080fd5b62000a6084828562000eae565b509392505050565b600082601f83011262000a7a57600080fd5b815162000a8c84826020860162000949565b91505092915050565b600082601f83011262000aa757600080fd5b815162000ab9848260208601620009ae565b91505092915050565b600082601f83011262000ad457600080fd5b815162000ae684826020860162000a23565b91505092915050565b60008151905062000b008162000fee565b92915050565b600080600080600080600080610100898b03121562000b2457600080fd5b600089015167ffffffffffffffff81111562000b3f57600080fd5b62000b4d8b828c0162000a68565b985050602089015167ffffffffffffffff81111562000b6b57600080fd5b62000b798b828c0162000a68565b975050604089015167ffffffffffffffff81111562000b9757600080fd5b62000ba58b828c0162000a95565b965050606089015167ffffffffffffffff81111562000bc357600080fd5b62000bd18b828c0162000a95565b955050608089015167ffffffffffffffff81111562000bef57600080fd5b62000bfd8b828c0162000ac2565b94505060a089015167ffffffffffffffff81111562000c1b57600080fd5b62000c298b828c0162000ac2565b93505060c062000c3c8b828c0162000aef565b92505060e062000c4f8b828c0162000aef565b9150509295985092959890939650565b600062000c6c8262000e2b565b62000c78818562000e36565b935062000c8a81856020860162000eae565b62000c958162000fdd565b840191505092915050565b62000cab8162000ea4565b82525050565b6000608082019050818103600083015262000ccd818762000c5f565b9050818103602083015262000ce3818662000c5f565b905062000cf4604083018562000ca0565b818103606083015262000d08818462000c5f565b905095945050505050565b6000608082019050818103600083015262000d2f818762000c5f565b9050818103602083015262000d45818662000c5f565b905062000d56604083018562000ca0565b62000d65606083018462000ca0565b95945050505050565b600062000d7a62000d8d565b905062000d88828262000f1a565b919050565b6000604051905090565b600067ffffffffffffffff82111562000db55762000db462000fae565b5b602082029050602081019050919050565b600067ffffffffffffffff82111562000de45762000de362000fae565b5b602082029050602081019050919050565b600067ffffffffffffffff82111562000e135762000e1262000fae565b5b62000e1e8262000fdd565b9050602081019050919050565b600081519050919050565b600082825260208201905092915050565b600062000e548262000ea4565b915062000e618362000ea4565b9250827fffffffffffffffffffffffffffffffffffffffffffffffffffffffffffffffff0382111562000e995762000e9862000f50565b5b828201905092915050565b6000819050919050565b60005b8381101562000ece57808201518184015260208101905062000eb1565b8381111562000ede576000848401525b50505050565b6000600282049050600182168062000efd57607f821691505b6020821081141562000f145762000f1362000f7f565b5b50919050565b62000f258262000fdd565b810181811067ffffffffffffffff8211171562000f475762000f4662000fae565b5b80604052505050565b7f4e487b7100000000000000000000000000000000000000000000000000000000600052601160045260246000fd5b7f4e487b7100000000000000000000000000000000000000000000000000000000600052602260045260246000fd5b7f4e487b7100000000000000000000000000000000000000000000000000000000600052604160045260246000fd5b6000601f19601f8301169050919050565b62000ff98162000ea4565b81146200100557600080fd5b50565b61494180620010186000396000f3fe608060405234801561001057600080fd5b50600436106101375760003560e01c80637df124a1116100b8578063a9c326791161007c578063a9c3267914610365578063b88d4fde14610387578063c76d9e7d146103a3578063c87b56dd146103c1578063d4f24c5b146103f1578063e985e9c5146103fb57610137565b80637df124a1146102a857806383e56dca146102d857806395d89b41146102f657806398da4c9514610314578063a22cb4651461034957610137565b806330607582116100ff57806330607582146101f257806342842e0e1461020e5780634a75ccc31461022a5780636352211e1461024857806370a082311461027857610137565b806301ffc9a71461013c57806306fdde031461016c578063081812fc1461018a578063095ea7b3146101ba57806323b872dd146101d6575b600080fd5b61015660048036038101906101519190613220565b61042b565b6040516101639190613a3f565b60405180910390f35b61017461050d565b6040516101819190613a5a565b60405180910390f35b6101a4600480360381019061019f9190613272565b61059f565b6040516101b1919061397f565b60405180910390f35b6101d460048036038101906101cf91906131e4565b6105e5565b005b6101f060048036038101906101eb91906130de565b6106fd565b005b61020c60048036038101906102079190613272565b61075d565b005b610228600480360381019061022391906130de565b610c24565b005b610232610c44565b60405161023f9190613d6f565b60405180910390f35b610262600480360381019061025d9190613272565b610e43565b60405161026f919061397f565b60405180910390f35b610292600480360381019061028d9190613079565b610ef5565b60405161029f9190613db3565b60405180910390f35b6102c260048036038101906102bd9190613079565b610fad565b6040516102cf9190613db3565b60405180910390f35b6102e0610fc5565b6040516102ed9190613a1d565b60405180910390f35b6102fe611170565b60405161030b9190613a5a565b60405180910390f35b61032e60048036038101906103299190613272565b611202565b60405161034096959493929190613dce565b60405180910390f35b610363600480360381019061035e91906131a8565b61134e565b005b61036d611364565b60405161037e959493929190613b6e565b60405180910390f35b6103a1600480360381019061039c919061312d565b611498565b005b6103ab6114fa565b6040516103b89190613d91565b60405180910390f35b6103db60048036038101906103d69190613272565b611656565b6040516103e89190613a5a565b60405180910390f35b6103f9611871565b005b610415600480360381019061041091906130a2565b611d1a565b6040516104229190613a3f565b60405180910390f35b60007f80ac58cd000000000000000000000000000000000000000000000000000000007bffffffffffffffffffffffffffffffffffffffffffffffffffffffff1916827bffffffffffffffffffffffffffffffffffffffffffffffffffffffff191614806104f657507f5b5e139f000000000000000000000000000000000000000000000000000000007bffffffffffffffffffffffffffffffffffffffffffffffffffffffff1916827bffffffffffffffffffffffffffffffffffffffffffffffffffffffff1916145b80610506575061050582611f08565b5b9050919050565b60606000805461051c906140eb565b80601f0160208091040260200160405190810160405280929190818152602001828054610548906140eb565b80156105955780601f1061056a57610100808354040283529160200191610595565b820191906000526020600020905b81548152906001019060200180831161057857829003601f168201915b5050505050905090565b60006105aa82611f72565b6004600083815260200190815260200160002060009054906101000a900473ffffffffffffffffffffffffffffffffffffffff169050919050565b60006105f082610e43565b90508073ffffffffffffffffffffffffffffffffffffffff168373ffffffffffffffffffffffffffffffffffffffff161415610661576040517f08c379a000000000000000000000000000000000000000000000000000000000815260040161065890613d0f565b60405180910390fd5b8073ffffffffffffffffffffffffffffffffffffffff16610680611fbd565b73ffffffffffffffffffffffffffffffffffffffff1614806106af57506106ae816106a9611fbd565b611d1a565b5b6106ee576040517f08c379a00000000000000000000000000000000000000000000000000000000081526004016106e590613c8f565b60405180910390fd5b6106f88383611fc5565b505050565b61070e610708611fbd565b8261207e565b61074d576040517f08c379a000000000000000000000000000000000000000000000000000000000815260040161074490613d4f565b60405180910390fd5b610758838383612113565b505050565b6000610769600661237a565b90506107753382612388565b6040518060c00160405280838152602001600784815481106107c0577f4e487b7100000000000000000000000000000000000000000000000000000000600052603260045260246000fd5b906000526020600020906006020160010180546107dc906140eb565b80601f0160208091040260200160405190810160405280929190818152602001828054610808906140eb565b80156108555780601f1061082a57610100808354040283529160200191610855565b820191906000526020600020905b81548152906001019060200180831161083857829003601f168201915b5050505050815260200160078481548110610899577f4e487b7100000000000000000000000000000000000000000000000000000000600052603260045260246000fd5b906000526020600020906006020160020180546108b5906140eb565b80601f01602080910402602001604051908101604052809291908181526020018280546108e1906140eb565b801561092e5780601f106109035761010080835404028352916020019161092e565b820191906000526020600020905b81548152906001019060200180831161091157829003601f168201915b5050505050815260200160078481548110610972577f4e487b7100000000000000000000000000000000000000000000000000000000600052603260045260246000fd5b9060005260206000209060060201600301548152602001600784815481106109c3577f4e487b7100000000000000000000000000000000000000000000000000000000600052603260045260246000fd5b906000526020600020906006020160040154815260200160078481548110610a14577f4e487b7100000000000000000000000000000000000000000000000000000000600052603260045260246000fd5b90600052602060002090600602016005015481525060086000838152602001908152602001600020600082015181600001556020820151816001019080519060200190610a62929190612ea0565b506040820151816002019080519060200190610a7f929190612ea0565b50606082015181600301556080820151816004015560a08201518160050155905050610b976040518060600160405280602b81526020016147f1602b913960078481548110610af7577f4e487b7100000000000000000000000000000000000000000000000000000000600052603260045260246000fd5b90600052602060002090600602016001018054610b13906140eb565b80601f0160208091040260200160405190810160405280929190818152602001828054610b3f906140eb565b8015610b8c5780601f10610b6157610100808354040283529160200191610b8c565b820191906000526020600020905b815481529060010190602001808311610b6f57829003601f168201915b5050505050836123a6565b80600e60003373ffffffffffffffffffffffffffffffffffffffff1673ffffffffffffffffffffffffffffffffffffffff16815260200190815260200160002081905550610be56006611ef2565b7f4bc303fd457a97b4691b9af582ce71868a3d258638c8d4f8c60988a0f0bfb8cd338284604051610c18939291906139e6565b60405180910390a15050565b610c3f83838360405180602001604052806000815250611498565b505050565b610c4c612f26565b6000600e60003373ffffffffffffffffffffffffffffffffffffffff1673ffffffffffffffffffffffffffffffffffffffff1681526020019081526020016000205490506000811115610e11576000600860008381526020019081526020016000209050806040518060c001604052908160008201548152602001600182018054610cd6906140eb565b80601f0160208091040260200160405190810160405280929190818152602001828054610d02906140eb565b8015610d4f5780601f10610d2457610100808354040283529160200191610d4f565b820191906000526020600020905b815481529060010190602001808311610d3257829003601f168201915b50505050508152602001600282018054610d68906140eb565b80601f0160208091040260200160405190810160405280929190818152602001828054610d94906140eb565b8015610de15780601f10610db657610100808354040283529160200191610de1565b820191906000526020600020905b815481529060010190602001808311610dc457829003601f168201915b50505050508152602001600382015481526020016004820154815260200160058201548152505092505050610e40565b610e3260405180606001604052806024815260200161489d60249139612445565b610e3a612f26565b80925050505b90565b6000806002600084815260200190815260200160002060009054906101000a900473ffffffffffffffffffffffffffffffffffffffff169050600073ffffffffffffffffffffffffffffffffffffffff168173ffffffffffffffffffffffffffffffffffffffff161415610eec576040517f08c379a0000000000000000000000000000000000000000000000000000000008152600401610ee390613cef565b60405180910390fd5b80915050919050565b60008073ffffffffffffffffffffffffffffffffffffffff168273ffffffffffffffffffffffffffffffffffffffff161415610f66576040517f08c379a0000000000000000000000000000000000000000000000000000000008152600401610f5d90613c6f565b60405180910390fd5b600360008373ffffffffffffffffffffffffffffffffffffffff1673ffffffffffffffffffffffffffffffffffffffff168152602001908152602001600020549050919050565b600e6020528060005260406000206000915090505481565b60606007805480602002602001604051908101604052809291908181526020016000905b8282101561116757838290600052602060002090600602016040518060c001604052908160008201548152602001600182018054611026906140eb565b80601f0160208091040260200160405190810160405280929190818152602001828054611052906140eb565b801561109f5780601f106110745761010080835404028352916020019161109f565b820191906000526020600020905b81548152906001019060200180831161108257829003601f168201915b505050505081526020016002820180546110b8906140eb565b80601f01602080910402602001604051908101604052809291908181526020018280546110e4906140eb565b80156111315780601f1061110657610100808354040283529160200191611131565b820191906000526020600020905b81548152906001019060200180831161111457829003601f168201915b50505050508152602001600382015481526020016004820154815260200160058201548152505081526020019060010190610fe9565b50505050905090565b60606001805461117f906140eb565b80601f01602080910402602001604051908101604052809291908181526020018280546111ab906140eb565b80156111f85780601f106111cd576101008083540402835291602001916111f8565b820191906000526020600020905b8154815290600101906020018083116111db57829003601f168201915b5050505050905090565b600860205280600052604060002060009150905080600001549080600101805461122b906140eb565b80601f0160208091040260200160405190810160405280929190818152602001828054611257906140eb565b80156112a45780601f10611279576101008083540402835291602001916112a4565b820191906000526020600020905b81548152906001019060200180831161128757829003601f168201915b5050505050908060020180546112b9906140eb565b80601f01602080910402602001604051908101604052809291908181526020018280546112e5906140eb565b80156113325780601f1061130757610100808354040283529160200191611332565b820191906000526020600020905b81548152906001019060200180831161131557829003601f168201915b5050505050908060030154908060040154908060050154905086565b611360611359611fbd565b83836124de565b5050565b6009806000018054611375906140eb565b80601f01602080910402602001604051908101604052809291908181526020018280546113a1906140eb565b80156113ee5780601f106113c3576101008083540402835291602001916113ee565b820191906000526020600020905b8154815290600101906020018083116113d157829003601f168201915b505050505090806001018054611403906140eb565b80601f016020809104026020016040519081016040528092919081815260200182805461142f906140eb565b801561147c5780601f106114515761010080835404028352916020019161147c565b820191906000526020600020905b81548152906001019060200180831161145f57829003601f168201915b5050505050908060020154908060030154908060040154905085565b6114a96114a3611fbd565b8361207e565b6114e8576040517f08c379a00000000000000000000000000000000000000000000000000000000081526004016114df90613d4f565b60405180910390fd5b6114f48484848461264b565b50505050565b611502612f5c565b60096040518060a001604052908160008201805461151f906140eb565b80601f016020809104026020016040519081016040528092919081815260200182805461154b906140eb565b80156115985780601f1061156d57610100808354040283529160200191611598565b820191906000526020600020905b81548152906001019060200180831161157b57829003601f168201915b505050505081526020016001820180546115b1906140eb565b80601f01602080910402602001604051908101604052809291908181526020018280546115dd906140eb565b801561162a5780601f106115ff5761010080835404028352916020019161162a565b820191906000526020600020905b81548152906001019060200180831161160d57829003601f168201915b505050505081526020016002820154815260200160038201548152602001600482015481525050905090565b60606000600860008481526020019081526020016000206040518060c001604052908160008201548152602001600182018054611692906140eb565b80601f01602080910402602001604051908101604052809291908181526020018280546116be906140eb565b801561170b5780601f106116e05761010080835404028352916020019161170b565b820191906000526020600020905b8154815290600101906020018083116116ee57829003601f168201915b50505050508152602001600282018054611724906140eb565b80601f0160208091040260200160405190810160405280929190818152602001828054611750906140eb565b801561179d5780601f106117725761010080835404028352916020019161179d565b820191906000526020600020905b81548152906001019060200180831161178057829003601f168201915b505050505081526020016003820154815260200160048201548152602001600582015481525050905060006117d582606001516126a7565b905060006117e683608001516126a7565b905060006117f78460a001516126a7565b9050600061183d856020015161180c896126a7565b8760400151878787604051602001611829969594939291906138b8565b604051602081830303815290604052612854565b9050600081604051602001611852919061395d565b6040516020818303038152906040529050809650505050505050919050565b6000600e60003373ffffffffffffffffffffffffffffffffffffffff1673ffffffffffffffffffffffffffffffffffffffff168152602001908152602001600020549050600060086000838152602001908152602001600020905061198460405180608001604052806041815260200161485c604191398260010180546118f7906140eb565b80601f0160208091040260200160405190810160405280929190818152602001828054611923906140eb565b80156119705780601f1061194557610100808354040283529160200191611970565b820191906000526020600020905b81548152906001019060200180831161195357829003601f168201915b505050505083600301548460050154611e50565b611a5c6040518060400160405280601581526020017f25732068617320257320485020616e2025732041440000000000000000000000815250600960000180546119cd906140eb565b80601f01602080910402602001604051908101604052809291908181526020018280546119f9906140eb565b8015611a465780601f10611a1b57610100808354040283529160200191611a46565b820191906000526020600020905b815481529060010190602001808311611a2957829003601f168201915b5050505050600960020154600960040154611e50565b6000816003015411611aa3576040517f08c379a0000000000000000000000000000000000000000000000000000000008152600401611a9a90613ccf565b60405180910390fd5b600060096002015411611aeb576040517f08c379a0000000000000000000000000000000000000000000000000000000008152600401611ae290613d2f565b60405180910390fd5b80600501546009600201541015611b0c576000600960020181905550611b2b565b8060050154600960020154611b219190614001565b6009600201819055505b60096004015481600301541015611b4b5760008160030181905550611b69565b6009600401548160030154611b609190614001565b81600301819055505b611c1e6040518060600160405280602681526020016148c16026913960096000018054611b95906140eb565b80601f0160208091040260200160405190810160405280929190818152602001828054611bc1906140eb565b8015611c0e5780601f10611be357610100808354040283529160200191611c0e565b820191906000526020600020905b815481529060010190602001808311611bf157829003601f168201915b50505050506009600201546123a6565b611cd26040518060600160405280602581526020016148e76025913960096000018054611c4a906140eb565b80601f0160208091040260200160405190810160405280929190818152602001828054611c76906140eb565b8015611cc35780601f10611c9857610100808354040283529160200191611cc3565b820191906000526020600020905b815481529060010190602001808311611ca657829003601f168201915b505050505083600301546123a6565b7f32bd565ee3f2cb5ddd742bbecd6048d3e9abe90b3827a40c2b72d232e71e3c9d336009600201548360030154604051611d0e939291906139e6565b60405180910390a15050565b6000600560008473ffffffffffffffffffffffffffffffffffffffff1673ffffffffffffffffffffffffffffffffffffffff16815260200190815260200160002060008373ffffffffffffffffffffffffffffffffffffffff1673ffffffffffffffffffffffffffffffffffffffff16815260200190815260200160002060009054906101000a900460ff16905092915050565b611e4a84848484604051602401611dc89493929190613ac1565b6040516020818303038152906040527f8d142cdd000000000000000000000000000000000000000000000000000000007bffffffffffffffffffffffffffffffffffffffffffffffffffffffff19166020820180517bffffffffffffffffffffffffffffffffffffffffffffffffffffffff8381831617835250505050612a12565b50505050565b611eec84848484604051602401611e6a9493929190613b1b565b6040516020818303038152906040527fd5cf17d0000000000000000000000000000000000000000000000000000000007bffffffffffffffffffffffffffffffffffffffffffffffffffffffff19166020820180517bffffffffffffffffffffffffffffffffffffffffffffffffffffffff8381831617835250505050612a12565b50505050565b6001816000016000828254019250508190555050565b60007f01ffc9a7000000000000000000000000000000000000000000000000000000007bffffffffffffffffffffffffffffffffffffffffffffffffffffffff1916827bffffffffffffffffffffffffffffffffffffffffffffffffffffffff1916149050919050565b611f7b81612a3b565b611fba576040517f08c379a0000000000000000000000000000000000000000000000000000000008152600401611fb190613cef565b60405180910390fd5b50565b600033905090565b816004600083815260200190815260200160002060006101000a81548173ffffffffffffffffffffffffffffffffffffffff021916908373ffffffffffffffffffffffffffffffffffffffff160217905550808273ffffffffffffffffffffffffffffffffffffffff1661203883610e43565b73ffffffffffffffffffffffffffffffffffffffff167f8c5be1e5ebec7d5bd14f71427d1e84f3dd0314c0f7b2291e5b200ac8c7c3b92560405160405180910390a45050565b60008061208a83610e43565b90508073ffffffffffffffffffffffffffffffffffffffff168473ffffffffffffffffffffffffffffffffffffffff1614806120cc57506120cb8185611d1a565b5b8061210a57508373ffffffffffffffffffffffffffffffffffffffff166120f28461059f565b73ffffffffffffffffffffffffffffffffffffffff16145b91505092915050565b8273ffffffffffffffffffffffffffffffffffffffff1661213382610e43565b73ffffffffffffffffffffffffffffffffffffffff1614612189576040517f08c379a000000000000000000000000000000000000000000000000000000000815260040161218090613bef565b60405180910390fd5b600073ffffffffffffffffffffffffffffffffffffffff168273ffffffffffffffffffffffffffffffffffffffff1614156121f9576040517f08c379a00000000000000000000000000000000000000000000000000000000081526004016121f090613c2f565b60405180910390fd5b612204838383612aa7565b61220f600082611fc5565b6001600360008573ffffffffffffffffffffffffffffffffffffffff1673ffffffffffffffffffffffffffffffffffffffff168152602001908152602001600020600082825461225f9190614001565b925050819055506001600360008473ffffffffffffffffffffffffffffffffffffffff1673ffffffffffffffffffffffffffffffffffffffff16815260200190815260200160002060008282546122b69190613f20565b92505081905550816002600083815260200190815260200160002060006101000a81548173ffffffffffffffffffffffffffffffffffffffff021916908373ffffffffffffffffffffffffffffffffffffffff160217905550808273ffffffffffffffffffffffffffffffffffffffff168473ffffffffffffffffffffffffffffffffffffffff167fddf252ad1be2c89b69c2b068fc378daa952ba7f163c4a11628f55a4df523b3ef60405160405180910390a4612375838383612aac565b505050565b600081600001549050919050565b6123a2828260405180602001604052806000815250612ab1565b5050565b6124408383836040516024016123be93929190613a7c565b6040516020818303038152906040527ff362ca59000000000000000000000000000000000000000000000000000000007bffffffffffffffffffffffffffffffffffffffffffffffffffffffff19166020820180517bffffffffffffffffffffffffffffffffffffffffffffffffffffffff8381831617835250505050612a12565b505050565b6124db816040516024016124599190613a5a565b6040516020818303038152906040527f41304fac000000000000000000000000000000000000000000000000000000007bffffffffffffffffffffffffffffffffffffffffffffffffffffffff19166020820180517bffffffffffffffffffffffffffffffffffffffffffffffffffffffff8381831617835250505050612a12565b50565b8173ffffffffffffffffffffffffffffffffffffffff168373ffffffffffffffffffffffffffffffffffffffff16141561254d576040517f08c379a000000000000000000000000000000000000000000000000000000000815260040161254490613c4f565b60405180910390fd5b80600560008573ffffffffffffffffffffffffffffffffffffffff1673ffffffffffffffffffffffffffffffffffffffff16815260200190815260200160002060008473ffffffffffffffffffffffffffffffffffffffff1673ffffffffffffffffffffffffffffffffffffffff16815260200190815260200160002060006101000a81548160ff0219169083151502179055508173ffffffffffffffffffffffffffffffffffffffff168373ffffffffffffffffffffffffffffffffffffffff167f17307eab39ab6107e8899845ad3d59bd9653f200f220920489ca2b5937696c318360405161263e9190613a3f565b60405180910390a3505050565b612656848484612113565b61266284848484612b0c565b6126a1576040517f08c379a000000000000000000000000000000000000000000000000000000000815260040161269890613bcf565b60405180910390fd5b50505050565b606060008214156126ef576040518060400160405280600181526020017f3000000000000000000000000000000000000000000000000000000000000000815250905061284f565b600082905060005b6000821461272157808061270a9061414e565b915050600a8261271a9190613f76565b91506126f7565b60008167ffffffffffffffff811115612763577f4e487b7100000000000000000000000000000000000000000000000000000000600052604160045260246000fd5b6040519080825280601f01601f1916602001820160405280156127955781602001600182028036833780820191505090505b5090505b60008514612848576001826127ae9190614001565b9150600a856127bd9190614197565b60306127c99190613f20565b60f81b818381518110612805577f4e487b7100000000000000000000000000000000000000000000000000000000600052603260045260246000fd5b60200101907effffffffffffffffffffffffffffffffffffffffffffffffffffffffffffff1916908160001a905350600a856128419190613f76565b9450612799565b8093505050505b919050565b6060600082519050600081141561287d5760405180602001604052806000815250915050612a0d565b6000600360028361288e9190613f20565b6128989190613f76565b60046128a49190613fa7565b905060006020826128b59190613f20565b67ffffffffffffffff8111156128f4577f4e487b7100000000000000000000000000000000000000000000000000000000600052604160045260246000fd5b6040519080825280601f01601f1916602001820160405280156129265781602001600182028036833780820191505090505b509050600060405180606001604052806040815260200161481c604091399050600181016020830160005b868110156129ca5760038101905062ffffff818a015116603f8160121c168401518060081b905060ff603f83600c1c1686015116810190508060081b905060ff603f8360061c1686015116810190508060081b905060ff603f831686015116810190508060e01b90508084526004840193505050612951565b5060038606600181146129e457600281146129f4576129ff565b613d3d60f01b60028303526129ff565b603d60f81b60018303525b508484525050819450505050505b919050565b60008151905060006a636f6e736f6c652e6c6f679050602083016000808483855afa5050505050565b60008073ffffffffffffffffffffffffffffffffffffffff166002600084815260200190815260200160002060009054906101000a900473ffffffffffffffffffffffffffffffffffffffff1673ffffffffffffffffffffffffffffffffffffffff1614159050919050565b505050565b505050565b612abb8383612ca3565b612ac86000848484612b0c565b612b07576040517f08c379a0000000000000000000000000000000000000000000000000000000008152600401612afe90613bcf565b60405180910390fd5b505050565b6000612b2d8473ffffffffffffffffffffffffffffffffffffffff16612e7d565b15612c96578373ffffffffffffffffffffffffffffffffffffffff1663150b7a02612b56611fbd565b8786866040518563ffffffff1660e01b8152600401612b78949392919061399a565b602060405180830381600087803b158015612b9257600080fd5b505af1925050508015612bc357506040513d601f19601f82011682018060405250810190612bc09190613249565b60015b612c46573d8060008114612bf3576040519150601f19603f3d011682016040523d82523d6000602084013e612bf8565b606091505b50600081511415612c3e576040517f08c379a0000000000000000000000000000000000000000000000000000000008152600401612c3590613bcf565b60405180910390fd5b805181602001fd5b63150b7a0260e01b7bffffffffffffffffffffffffffffffffffffffffffffffffffffffff1916817bffffffffffffffffffffffffffffffffffffffffffffffffffffffff191614915050612c9b565b600190505b949350505050565b600073ffffffffffffffffffffffffffffffffffffffff168273ffffffffffffffffffffffffffffffffffffffff161415612d13576040517f08c379a0000000000000000000000000000000000000000000000000000000008152600401612d0a90613caf565b60405180910390fd5b612d1c81612a3b565b15612d5c576040517f08c379a0000000000000000000000000000000000000000000000000000000008152600401612d5390613c0f565b60405180910390fd5b612d6860008383612aa7565b6001600360008473ffffffffffffffffffffffffffffffffffffffff1673ffffffffffffffffffffffffffffffffffffffff1681526020019081526020016000206000828254612db89190613f20565b92505081905550816002600083815260200190815260200160002060006101000a81548173ffffffffffffffffffffffffffffffffffffffff021916908373ffffffffffffffffffffffffffffffffffffffff160217905550808273ffffffffffffffffffffffffffffffffffffffff16600073ffffffffffffffffffffffffffffffffffffffff167fddf252ad1be2c89b69c2b068fc378daa952ba7f163c4a11628f55a4df523b3ef60405160405180910390a4612e7960008383612aac565b5050565b6000808273ffffffffffffffffffffffffffffffffffffffff163b119050919050565b828054612eac906140eb565b90600052602060002090601f016020900481019282612ece5760008555612f15565b82601f10612ee757805160ff1916838001178555612f15565b82800160010185558215612f15579182015b82811115612f14578251825591602001919060010190612ef9565b5b509050612f229190612f8b565b5090565b6040518060c001604052806000815260200160608152602001606081526020016000815260200160008152602001600081525090565b6040518060a0016040528060608152602001606081526020016000815260200160008152602001600081525090565b5b80821115612fa4576000816000905550600101612f8c565b5090565b6000612fbb612fb684613e62565b613e3d565b905082815260208101848484011115612fd357600080fd5b612fde8482856140a9565b509392505050565b600081359050612ff581614794565b92915050565b60008135905061300a816147ab565b92915050565b60008135905061301f816147c2565b92915050565b600081519050613034816147c2565b92915050565b600082601f83011261304b57600080fd5b813561305b848260208601612fa8565b91505092915050565b600081359050613073816147d9565b92915050565b60006020828403121561308b57600080fd5b600061309984828501612fe6565b91505092915050565b600080604083850312156130b557600080fd5b60006130c385828601612fe6565b92505060206130d485828601612fe6565b9150509250929050565b6000806000606084860312156130f357600080fd5b600061310186828701612fe6565b935050602061311286828701612fe6565b925050604061312386828701613064565b9150509250925092565b6000806000806080858703121561314357600080fd5b600061315187828801612fe6565b945050602061316287828801612fe6565b935050604061317387828801613064565b925050606085013567ffffffffffffffff81111561319057600080fd5b61319c8782880161303a565b91505092959194509250565b600080604083850312156131bb57600080fd5b60006131c985828601612fe6565b92505060206131da85828601612ffb565b9150509250929050565b600080604083850312156131f757600080fd5b600061320585828601612fe6565b925050602061321685828601613064565b9150509250929050565b60006020828403121561323257600080fd5b600061324084828501613010565b91505092915050565b60006020828403121561325b57600080fd5b600061326984828501613025565b91505092915050565b60006020828403121561328457600080fd5b600061329284828501613064565b91505092915050565b60006132a783836136fd565b905092915050565b6132b881614035565b82525050565b60006132c982613ea3565b6132d38185613ed1565b9350836020820285016132e585613e93565b8060005b858110156133215784840389528151613302858261329b565b945061330d83613ec4565b925060208a019950506001810190506132e9565b50829750879550505050505092915050565b61333c81614047565b82525050565b600061334d82613eae565b6133578185613ee2565b93506133678185602086016140b8565b61337081614284565b840191505092915050565b600061338682613eb9565b6133908185613ef3565b93506133a08185602086016140b8565b6133a981614284565b840191505092915050565b60006133bf82613eb9565b6133c98185613f04565b93506133d98185602086016140b8565b6133e281614284565b840191505092915050565b60006133f882613eb9565b6134028185613f15565b93506134128185602086016140b8565b80840191505092915050565b600061342b600b83613f15565b915061343682614295565b600b82019050919050565b600061344e603283613f04565b9150613459826142be565b604082019050919050565b6000613471602583613f04565b915061347c8261430d565b604082019050919050565b6000613494601c83613f04565b915061349f8261435c565b602082019050919050565b60006134b7600e83613f15565b91506134c282614385565b600e82019050919050565b60006134da602483613f04565b91506134e5826143ae565b604082019050919050565b60006134fd601983613f04565b9150613508826143fd565b602082019050919050565b6000613520602983613f04565b915061352b82614426565b604082019050919050565b6000613543600483613f15565b915061354e82614475565b600482019050919050565b6000613566603e83613f04565b91506135718261449e565b604082019050919050565b6000613589602083613f04565b9150613594826144ed565b602082019050919050565b60006135ac601783613f04565b91506135b782614516565b602082019050919050565b60006135cf600a83613f15565b91506135da8261453f565b600a82019050919050565b60006135f2603283613f15565b91506135fd82614568565b603282019050919050565b6000613615601883613f04565b9150613620826145b7565b602082019050919050565b6000613638602183613f04565b9150613643826145e0565b604082019050919050565b600061365b601d83613f15565b91506136668261462f565b601d82019050919050565b600061367e602d83613f15565b915061368982614658565b602d82019050919050565b60006136a1604483613f15565b91506136ac826146a7565b604482019050919050565b60006136c4601583613f04565b91506136cf8261471c565b602082019050919050565b60006136e7602e83613f04565b91506136f282614745565b604082019050919050565b600060c083016000830151613715600086018261389a565b506020830151848203602086015261372d828261337b565b91505060408301518482036040860152613747828261337b565b915050606083015161375c606086018261389a565b50608083015161376f608086018261389a565b5060a083015161378260a086018261389a565b508091505092915050565b600060c0830160008301516137a5600086018261389a565b50602083015184820360208601526137bd828261337b565b915050604083015184820360408601526137d7828261337b565b91505060608301516137ec606086018261389a565b5060808301516137ff608086018261389a565b5060a083015161381260a086018261389a565b508091505092915050565b600060a083016000830151848203600086015261383a828261337b565b91505060208301518482036020860152613854828261337b565b9150506040830151613869604086018261389a565b50606083015161387c606086018261389a565b50608083015161388f608086018261389a565b508091505092915050565b6138a38161409f565b82525050565b6138b28161409f565b82525050565b60006138c3826135c2565b91506138cf82896133ed565b91506138da8261341e565b91506138e682886133ed565b91506138f182613694565b91506138fd82876133ed565b9150613908826135e5565b915061391482866133ed565b915061391f826134aa565b915061392b82856133ed565b915061393682613671565b915061394282846133ed565b915061394d82613536565b9150819050979650505050505050565b60006139688261364e565b915061397482846133ed565b915081905092915050565b600060208201905061399460008301846132af565b92915050565b60006080820190506139af60008301876132af565b6139bc60208301866132af565b6139c960408301856138a9565b81810360608301526139db8184613342565b905095945050505050565b60006060820190506139fb60008301866132af565b613a0860208301856138a9565b613a1560408301846138a9565b949350505050565b60006020820190508181036000830152613a3781846132be565b905092915050565b6000602082019050613a546000830184613333565b92915050565b60006020820190508181036000830152613a7481846133b4565b905092915050565b60006060820190508181036000830152613a9681866133b4565b90508181036020830152613aaa81856133b4565b9050613ab960408301846138a9565b949350505050565b60006080820190508181036000830152613adb81876133b4565b90508181036020830152613aef81866133b4565b9050613afe60408301856138a9565b8181036060830152613b1081846133b4565b905095945050505050565b60006080820190508181036000830152613b3581876133b4565b90508181036020830152613b4981866133b4565b9050613b5860408301856138a9565b613b6560608301846138a9565b95945050505050565b600060a0820190508181036000830152613b8881886133b4565b90508181036020830152613b9c81876133b4565b9050613bab60408301866138a9565b613bb860608301856138a9565b613bc560808301846138a9565b9695505050505050565b60006020820190508181036000830152613be881613441565b9050919050565b60006020820190508181036000830152613c0881613464565b9050919050565b60006020820190508181036000830152613c2881613487565b9050919050565b60006020820190508181036000830152613c48816134cd565b9050919050565b60006020820190508181036000830152613c68816134f0565b9050919050565b60006020820190508181036000830152613c8881613513565b9050919050565b60006020820190508181036000830152613ca881613559565b9050919050565b60006020820190508181036000830152613cc88161357c565b9050919050565b60006020820190508181036000830152613ce88161359f565b9050919050565b60006020820190508181036000830152613d0881613608565b9050919050565b60006020820190508181036000830152613d288161362b565b9050919050565b60006020820190508181036000830152613d48816136b7565b9050919050565b60006020820190508181036000830152613d68816136da565b9050919050565b60006020820190508181036000830152613d89818461378d565b905092915050565b60006020820190508181036000830152613dab818461381d565b905092915050565b6000602082019050613dc860008301846138a9565b92915050565b600060c082019050613de360008301896138a9565b8181036020830152613df581886133b4565b90508181036040830152613e0981876133b4565b9050613e1860608301866138a9565b613e2560808301856138a9565b613e3260a08301846138a9565b979650505050505050565b6000613e47613e58565b9050613e53828261411d565b919050565b6000604051905090565b600067ffffffffffffffff821115613e7d57613e7c614255565b5b613e8682614284565b9050602081019050919050565b6000819050602082019050919050565b600081519050919050565b600081519050919050565b600081519050919050565b6000602082019050919050565b600082825260208201905092915050565b600082825260208201905092915050565b600082825260208201905092915050565b600082825260208201905092915050565b600081905092915050565b6000613f2b8261409f565b9150613f368361409f565b9250827fffffffffffffffffffffffffffffffffffffffffffffffffffffffffffffffff03821115613f6b57613f6a6141c8565b5b828201905092915050565b6000613f818261409f565b9150613f8c8361409f565b925082613f9c57613f9b6141f7565b5b828204905092915050565b6000613fb28261409f565b9150613fbd8361409f565b9250817fffffffffffffffffffffffffffffffffffffffffffffffffffffffffffffffff0483118215151615613ff657613ff56141c8565b5b828202905092915050565b600061400c8261409f565b91506140178361409f565b92508282101561402a576140296141c8565b5b828203905092915050565b60006140408261407f565b9050919050565b60008115159050919050565b60007fffffffff0000000000000000000000000000000000000000000000000000000082169050919050565b600073ffffffffffffffffffffffffffffffffffffffff82169050919050565b6000819050919050565b82818337600083830152505050565b60005b838110156140d65780820151818401526020810190506140bb565b838111156140e5576000848401525b50505050565b6000600282049050600182168061410357607f821691505b6020821081141561411757614116614226565b5b50919050565b61412682614284565b810181811067ffffffffffffffff8211171561414557614144614255565b5b80604052505050565b60006141598261409f565b91507fffffffffffffffffffffffffffffffffffffffffffffffffffffffffffffffff82141561418c5761418b6141c8565b5b600182019050919050565b60006141a28261409f565b91506141ad8361409f565b9250826141bd576141bc6141f7565b5b828206905092915050565b7f4e487b7100000000000000000000000000000000000000000000000000000000600052601160045260246000fd5b7f4e487b7100000000000000000000000000000000000000000000000000000000600052601260045260246000fd5b7f4e487b7100000000000000000000000000000000000000000000000000000000600052602260045260246000fd5b7f4e487b7100000000000000000000000000000000000000000000000000000000600052604160045260246000fd5b6000601f19601f8301169050919050565b7f202d2d204e465420233a20000000000000000000000000000000000000000000600082015250565b7f4552433732313a207472616e7366657220746f206e6f6e20455243373231526560008201527f63656976657220696d706c656d656e7465720000000000000000000000000000602082015250565b7f4552433732313a207472616e736665722066726f6d20696e636f72726563742060008201527f6f776e6572000000000000000000000000000000000000000000000000000000602082015250565b7f4552433732313a20746f6b656e20616c7265616479206d696e74656400000000600082015250565b7f2c20226d61785f76616c7565223a000000000000000000000000000000000000600082015250565b7f4552433732313a207472616e7366657220746f20746865207a65726f2061646460008201527f7265737300000000000000000000000000000000000000000000000000000000602082015250565b7f4552433732313a20617070726f766520746f2063616c6c657200000000000000600082015250565b7f4552433732313a2061646472657373207a65726f206973206e6f74206120766160008201527f6c6964206f776e65720000000000000000000000000000000000000000000000602082015250565b7f7d205d7d00000000000000000000000000000000000000000000000000000000600082015250565b7f4552433732313a20617070726f76652063616c6c6572206973206e6f7420746f60008201527f6b656e206f776e6572206e6f7220617070726f76656420666f7220616c6c0000602082015250565b7f4552433732313a206d696e7420746f20746865207a65726f2061646472657373600082015250565b7f506c6179657220686173206e6f204850204c656674212e000000000000000000600082015250565b7f7b226e616d65223a202200000000000000000000000000000000000000000000600082015250565b7f222c202261747472696275746573223a205b207b202274726169745f7479706560008201527f223a20224850222c202276616c7565223a200000000000000000000000000000602082015250565b7f4552433732313a20696e76616c696420746f6b656e2049440000000000000000600082015250565b7f4552433732313a20617070726f76616c20746f2063757272656e74206f776e6560008201527f7200000000000000000000000000000000000000000000000000000000000000602082015250565b7f646174613a6170706c69636174696f6e2f6a736f6e3b6261736536342c000000600082015250565b7f7d2c207b202274726169745f74797065223a202241747461636b2044616d616760008201527f65222c202276616c7565223a2000000000000000000000000000000000000000602082015250565b7f222c20226465736372697074696f6e223a20224845524f204e46542066726f6d60008201527f20746865204c6567656e647320436f6c6c656374696f6e222c2022696d61676560208201527f223a202200000000000000000000000000000000000000000000000000000000604082015250565b7f426f737320697320646561642120487572726179210000000000000000000000600082015250565b7f4552433732313a2063616c6c6572206973206e6f7420746f6b656e206f776e6560008201527f72206e6f7220617070726f766564000000000000000000000000000000000000602082015250565b61479d81614035565b81146147a857600080fd5b50565b6147b481614047565b81146147bf57600080fd5b50565b6147cb81614053565b81146147d657600080fd5b50565b6147e28161409f565b81146147ed57600080fd5b5056fe4d696e74656420257320436c617373204c6567656e6473204e46542c204d696e74204e756d6265722025734142434445464748494a4b4c4d4e4f505152535455565758595a6162636465666768696a6b6c6d6e6f707172737475767778797a303132333435363738392b2f0a506c617965722077697468206368617261637465722025732069732061626f757420746f2061747461636b2e2048617320257320485020616e64202573204144596f752068617665206e6f7420796574206d696e74656420612063686172616374657221506c617965722064616d6167656420746865202573212025732048502072656d61696e696e6725732061747461636b656420796f752120596f752068617665202573204850206c6566742ea2646970667358221220abf24806b61ddf0780a777e82a375011735c1af533f598d0ea7e89caf5ecd6cd64736f6c63430008010033446f6e6520696e697469616c697a696e6720257320776974682025732064616d61676520616e64202573204850446f6e6520696e697469616c697a696e6720626f737320257320776974682025732048502c20696d616765206174202573",
  "linkReferences": {},
  "deployedLinkReferences": {}
}